{
  "contractName": "NoteContract",
  "abi": [
    {
      "inputs": [],
      "payable": false,
      "stateMutability": "nonpayable",
      "type": "constructor"
    },
    {
      "anonymous": false,
      "inputs": [
        {
          "indexed": true,
          "internalType": "address",
          "name": "own",
          "type": "address"
        },
        {
          "indexed": false,
          "internalType": "uint256",
          "name": "index",
          "type": "uint256"
        }
      ],
      "name": "ModifyNote",
      "type": "event"
    },
    {
      "anonymous": false,
      "inputs": [
        {
          "indexed": true,
          "internalType": "address",
          "name": "own",
          "type": "address"
        },
        {
          "indexed": false,
          "internalType": "string",
          "name": "note",
          "type": "string"
        }
      ],
      "name": "NewNote",
      "type": "event"
    },
    {
      "constant": true,
      "inputs": [
        {
          "internalType": "address",
          "name": "",
          "type": "address"
        },
        {
          "internalType": "uint256",
          "name": "",
          "type": "uint256"
        }
      ],
      "name": "notes",
      "outputs": [
        {
          "internalType": "string",
          "name": "",
          "type": "string"
        }
      ],
      "payable": false,
      "stateMutability": "view",
      "type": "function"
    },
    {
      "constant": true,
      "inputs": [],
      "name": "owner",
      "outputs": [
        {
          "internalType": "address",
          "name": "",
          "type": "address"
        }
      ],
      "payable": false,
      "stateMutability": "view",
      "type": "function"
    },
    {
      "constant": false,
      "inputs": [
        {
          "internalType": "string",
          "name": "note",
          "type": "string"
        }
      ],
      "name": "addNote",
      "outputs": [],
      "payable": false,
      "stateMutability": "nonpayable",
      "type": "function"
    },
    {
      "constant": true,
      "inputs": [
        {
          "internalType": "address",
          "name": "own",
          "type": "address"
        }
      ],
      "name": "getNotesLen",
      "outputs": [
        {
          "internalType": "uint256",
          "name": "",
          "type": "uint256"
        }
      ],
      "payable": false,
      "stateMutability": "view",
      "type": "function"
    },
    {
      "constant": false,
      "inputs": [
        {
          "internalType": "address",
          "name": "own",
          "type": "address"
        },
        {
          "internalType": "uint256",
          "name": "index",
          "type": "uint256"
        },
        {
          "internalType": "string",
          "name": "note",
          "type": "string"
        }
      ],
      "name": "modifyNote",
      "outputs": [],
      "payable": false,
      "stateMutability": "nonpayable",
      "type": "function"
    }
  ],
  "bytecode": "0x608060405234801561001057600080fd5b5033600160006101000a81548173ffffffffffffffffffffffffffffffffffffffff021916908373ffffffffffffffffffffffffffffffffffffffff160217905550610872806100616000396000f3fe608060405234801561001057600080fd5b50600436106100575760003560e01c8063787b582d1461005c5780638766c0b8146100b45780638da5cb5b14610199578063a4edff47146101e3578063e0b117ff1461029e575b600080fd5b61009e6004803603602081101561007257600080fd5b81019080803573ffffffffffffffffffffffffffffffffffffffff169060200190929190505050610365565b6040518082815260200191505060405180910390f35b610197600480360360608110156100ca57600080fd5b81019080803573ffffffffffffffffffffffffffffffffffffffff169060200190929190803590602001909291908035906020019064010000000081111561011157600080fd5b82018360208201111561012357600080fd5b8035906020019184600183028401116401000000008311171561014557600080fd5b91908080601f016020809104026020016040519081016040528093929190818152602001838380828437600081840152601f19601f8201169050808301925050505050505091929192905050506103b0565b005b6101a161057b565b604051808273ffffffffffffffffffffffffffffffffffffffff1673ffffffffffffffffffffffffffffffffffffffff16815260200191505060405180910390f35b61029c600480360360208110156101f957600080fd5b810190808035906020019064010000000081111561021657600080fd5b82018360208201111561022857600080fd5b8035906020019184600183028401116401000000008311171561024a57600080fd5b91908080601f016020809104026020016040519081016040528093929190818152602001838380828437600081840152601f19601f8201169050808301925050505050505091929192905050506105a1565b005b6102ea600480360360408110156102b457600080fd5b81019080803573ffffffffffffffffffffffffffffffffffffffff169060200190929190803590602001909291905050506106d2565b6040518080602001828103825283818151815260200191508051906020019080838360005b8381101561032a57808201518184015260208101905061030f565b50505050905090810190601f1680156103575780820380516001836020036101000a031916815260200191505b509250505060405180910390f35b60008060008373ffffffffffffffffffffffffffffffffffffffff1673ffffffffffffffffffffffffffffffffffffffff168152602001908152602001600020805490509050919050565b3373ffffffffffffffffffffffffffffffffffffffff16600160009054906101000a900473ffffffffffffffffffffffffffffffffffffffff1673ffffffffffffffffffffffffffffffffffffffff161461040a57600080fd5b6000808473ffffffffffffffffffffffffffffffffffffffff1673ffffffffffffffffffffffffffffffffffffffff1681526020019081526020016000208054905082106104c0576040517f08c379a00000000000000000000000000000000000000000000000000000000081526004018080602001828103825260138152602001807f496e646578206f7574206f6620626f756e64730000000000000000000000000081525060200191505060405180910390fd5b806000808573ffffffffffffffffffffffffffffffffffffffff1673ffffffffffffffffffffffffffffffffffffffff168152602001908152602001600020838154811061050a57fe5b906000526020600020019080519060200190610527929190610798565b508273ffffffffffffffffffffffffffffffffffffffff167f708dcbe9778aaa99c71e4a1412b2c9a5f0314a1deeaf46e51ecc48c46f11f1ec836040518082815260200191505060405180910390a2505050565b600160009054906101000a900473ffffffffffffffffffffffffffffffffffffffff1681565b6000803373ffffffffffffffffffffffffffffffffffffffff1673ffffffffffffffffffffffffffffffffffffffff16815260200190815260200160002081908060018154018082558091505090600182039060005260206000200160009091929091909150908051906020019061061a929190610798565b50503373ffffffffffffffffffffffffffffffffffffffff167ff2555d00e065d582c4653357dbcf43cf8e0d291c35cc0faad6cf8467e8398c92826040518080602001828103825283818151815260200191508051906020019080838360005b8381101561069557808201518184015260208101905061067a565b50505050905090810190601f1680156106c25780820380516001836020036101000a031916815260200191505b509250505060405180910390a250565b600060205281600052604060002081815481106106eb57fe5b90600052602060002001600091509150508054600181600116156101000203166002900480601f0160208091040260200160405190810160405280929190818152602001828054600181600116156101000203166002900480156107905780601f1061076557610100808354040283529160200191610790565b820191906000526020600020905b81548152906001019060200180831161077357829003601f168201915b505050505081565b828054600181600116156101000203166002900490600052602060002090601f016020900481019282601f106107d957805160ff1916838001178555610807565b82800160010185558215610807579182015b828111156108065782518255916020019190600101906107eb565b5b5090506108149190610818565b5090565b61083a91905b8082111561083657600081600090555060010161081e565b5090565b9056fea265627a7a72315820fb32d6326afb101b2e2762276526304381ddb993d385817e7d7e0956f75d3f3464736f6c63430005100032",
  "source": "//SPDX-License-Identifier:MIT\r\npragma solidity ^0.5.16;\r\n\r\ncontract NoteContract {\r\n    mapping(address => string[]) public notes;\r\n    address public owner;\r\n    \r\n    constructor() public {\r\n        owner=msg.sender;\r\n    }\r\n\r\n    event NewNote(address indexed own, string note);\r\n\r\n    //添加记事\r\n    function addNote(string memory note) public {\r\n        notes[msg.sender].push(note);\r\n        emit NewNote(msg.sender, note);\r\n    }\r\n\r\n    function getNotesLen(address own) public view returns (uint) {\r\n        return notes[own].length;\r\n    }\r\n\r\n    //仅owner可以操作\r\n    modifier onlyowner() {\r\n        require(owner == msg.sender);\r\n        _;\r\n    }\r\n\r\n    //修改笔记功能\r\n    event ModifyNote(address indexed own,uint index);\r\n    \r\n    function modifyNote(\r\n        address own,\r\n        uint index,\r\n        string memory note\r\n    ) public onlyowner {\r\n        // require(own==msg.sender);\r\n        require(index<notes[own].length,\"Index out of bounds\");\r\n        notes[own][index] = note;\r\n        emit ModifyNote(own, index);\r\n    }\r\n}\r\n",
  "sourcePath": "C:\\Users\\86166\\Desktop\\code\\blockchain\\Truffle\\noteOnchain\\contracts\\NoteContract.sol",
  "compiler": {
    "name": "solc",
    "version": "0.5.16+commit.9c3226ce.Emscripten.clang"
  },
  "schemaVersion": "3.4.16",
  "updatedAt": "2024-12-03T11:59:06.455Z",
  "devdoc": {
    "methods": {}
  },
  "userdoc": {
    "methods": {}
  }
}